:100000000C945D000C9485000C9485000C94850084
:100010000C9485000C9485000C9485000C9485004C
:100020000C9485000C9485000C9485000C9485003C
:100030000C9485000C9485000C9485000C9485002C
:100040000C9414030C9485000C9485000C9485008A
:100050000C9485000C9485000C9485000C9485000C
:100060000C945E030C94850000000008000201005F
:100070000003040700000000000000000000000072
:10008000250028002B0000000000240027002A0083
:10009000040404040404040402020202020203032E
:1000A0000303030301020408102040800102040836
:1000B00010200102040810208C0411241FBECFEF71
:1000C000D8E0DEBFCDBF11E0A0E0B1E0EAE9FDE09D
:1000D00002C005900D92A232B107D9F721E0A2E249
:1000E000B1E001C01D92A53EB207E1F710E0CDE5F9
:1000F000D0E004C02197FE010E94C006CC35D10794
:10010000C9F70E94BB040C94CB060C94000090E04D
:10011000FC01EC55FF4F2491FC01E057FF4F849107
:10012000882399F090E0880F991FFC01EA57FF4F50
:10013000A591B491FC01E458FF4F859194918FB73C
:10014000F894EC91E22BEC938FBF0895CF92DF925D
:10015000EF92FF920F931F93CF93DF936C017A017D
:100160008B01C0E0D0E0CE15DF0589F0D8016D919C
:100170008D01D601ED91FC910190F081E02DC60139
:100180000995892B11F47E0102C02196ECCFC7019D
:10019000DF91CF911F910F91FF90EF90DF90CF9063
:1001A000089590E0FC01E859FF4F3491FC01EC55B3
:1001B000FF4F2491FC01E057FF4FE491EE2309F437
:1001C0003BC0332339F1333091F038F43130A9F0AA
:1001D000323001F584B58F7D12C0373091F0383060
:1001E000A1F03430B9F4809180008F7D03C08091FC
:1001F00080008F77809380000DC084B58F7784BD99
:1002000009C08091B0008F7703C08091B0008F7DCE
:100210008093B000F0E0EE0FFF1FE458FF4FA59170
:10022000B4918FB7F894EC91611103C020952E23FF
:1002300001C02E2B2C938FBF089585ED8093BC00B9
:100240008091BC0084FDFCCF10929A0108954091EA
:100250004401262F30E0240F311D21323105DCF41A
:1002600020919A012430C9F4FC0180E090E08617C7
:1002700058F4309144012191DC01AE5DBE4FA30FD3
:10028000B11D2C930196F3CF80914401680F6093C8
:10029000440180E0089581E0089582E00895089582
:1002A00081E090E030916F0120916E01321710F4DF
:1002B00080E090E0919581959109089580916F017A
:1002C00090916E01891730F48F5F80936F0180E009
:1002D00090E008958FEF9FEF089580916E0190E078
:1002E00020916F01821B91090895CF92DF92EF92C6
:1002F000FF920F931F93CF93DF937C01262F972FAD
:100300008A0180919B01882391F0C62FD72F6E011F
:10031000C40ED51ECC15DD0571F06991D701ED91A4
:10032000FC910190F081E02DC7010995F3CF642F76
:10033000822F0E942701C801DF91CF911F910F9159
:10034000FF90EF90DF90CF900895CF93DF931F92AF
:10035000CDB7DEB7698320919B012223D1F0209194
:10036000BE01203240F021E030E0FC0133832283E3
:1003700080E090E015C080919C01E82FF0E0E3560A
:10038000FE4F998190838F5F80939C018093BE0183
:1003900005C061E0CE0101960E94270181E090E056
:1003A0000F90DF91CF910895CF93DF93EC0160E040
:1003B0008E810E94D10061E08E810E94D10060E0B8
:1003C0008E810E94D1008BE891E00197F1F7DF91D7
:1003D000CF910895CF92DF92EF92FF920F931F93E8
:1003E000CF93DF937C016C0187E0C80ED11CC0E085
:1003F000D0E0062F10E0B8010C2E02C0759567956D
:100400000A94E2F76170F60181916F010E94D100B8
:100410002196C430D10579F7C701DF91CF911F91A3
:100420000F91FF90EF90DF90CF900C94D401CF927A
:10043000DF92EF92FF920F931F93CF93DF93EC0124
:10044000F62E642F8C810E94D1008D818F3F19F090
:1004500060E00E94D1008F850F2D10E084FF25C041
:100460006E0187E0C80ED11CE12CF12CB8010E2CD6
:1004700002C0759567950A94E2F76170F601819163
:100480006F010E94D100FFEFEF1AFF0A88E0E81623
:10049000F10461F7CE01DF91CF911F910F91FF9091
:1004A000EF90DF90CF900C94D401B80184E0759563
:1004B00067958A95E1F7CE010E94EA016F2DCE0182
:1004C000DF91CF911F910F91FF90EF90DF90CF9030
:1004D0000C94EA0141E00E94170281E090E0089547
:1004E00040E00C941702EF92FF920F931F93CF936B
:1004F000DF93EC01623018F08F8588608F876B8BFB
:100500001C8A80E48D8B80E18E8B80E58F8B8C81C3
:100510000E9487008D818F3F11F00E9487008E819D
:100520000E9487007E0187E0E80EF11C00E010E0E9
:100530008F8584FD03C084E090E002C088E090E0F5
:100540000817190744F4F70181917F010E94870081
:100550000F5F1F4FEDCF8BE39DE00197F1F760E058
:100560008C810E94D10060E08E810E94D1008D813B
:100570008F3F19F060E00E94D1006F8564FD1DC0BF
:1005800063E0CE010E94EA010BE416E4C801019782
:10059000F1F763E0CE010E94EA01C8010197F1F78B
:1005A00063E0CE010E94EA0183E592E00197F1F752
:1005B00062E0CE010E94EA0116C06062CE010E9494
:1005C00070028BE496E40197F1F76F856062CE01CB
:1005D0000E94700283E592E00197F1F76F856062F7
:1005E000CE010E9470026F856062CE010E9470028F
:1005F00084E0888B6CE0CE010E94700261E0CE0145
:100600000E9470028BE39FE10197F1F782E0898BF2
:1006100066E0CE01DF91CF911F910F91FF90EF9097
:100620000C9470020E94C6061F920F920FB60F9292
:1006300011242F933F938F939F93AF93BF938091F8
:10064000700190917101A0917201B091730130918C
:100650006D0123E0230F2D3720F40196A11DB11D5C
:1006600005C026E8230F0296A11DB11D20936D0140
:100670008093700190937101A0937201B093730104
:100680008091690190916A01A0916B01B0916C0118
:100690000196A11DB11D8093690190936A01A093F9
:1006A0006B01B0936C01BF91AF919F918F913F917E
:1006B0002F910F900FBE0F901F9018951F920F92C1
:1006C0000FB60F9211242F933F934F935F936F9325
:1006D0007F938F939F93AF93BF93EF93FF938091FB
:1006E000B900887F803609F49CC068F5883209F427
:1006F0005BC090F4803109F454C038F4882309F4C5
:10070000F6C0883009F44DC0F6C0883109F44CC0F9
:10071000803209F45DC0EFC0803409F468C048F449
:10072000803309F455C0883309F0E5C080939801FF
:10073000D8C0803509F44FC0883509F45DC08834CD
:1007400009F0D9C0D6C0883909F4C7C0A8F48837E1
:1007500009F467C038F4883609F463C0803709F4B7
:1007600060C0C9C0883809F4B8C0803909F45FC0D6
:10077000803809F0C0C05BC0803B09F486C038F403
:10078000803A09F466C0883A09F47FC0B4C0803C5E
:1007900009F4A7C0883C09F4A4C0883B09F48AC0C6
:1007A000AAC08091750110C0909197018091960127
:1007B000981770F5E091970181E08E0F8093970173
:1007C000F0E0EA58FE4F80818093BB0085EC86C044
:1007D000809398018EC0E091970181E08E0F809305
:1007E00097018091BB00F0E0EA58FE4F8083909122
:1007F0009701809196016EC0E091970181E08E0F84
:10080000809397018091BB00F0E0EA58FE4F80830F
:100810008091990181116DC081E08093740184EA17
:1008200061C083E080939A0110926801CFCF8091DC
:100830006801803208F051C0E091680181E08E0FBC
:10084000809368018091BB00F0E0E85BFE4F8083FD
:10085000BDCF85EC8093BC0010929A018091680115
:10086000803230F4E0916801F0E0E85BFE4F1082E6
:100870006091680170E0E0914601F091470188E4E1
:1008800091E009951092680136C084E080939A0146
:100890001092450110924401E0914201F091430110
:1008A000099580914401811105C081E08093440144
:1008B00010922201E091450181E08E0F8093450165
:1008C000F0E0EE5DFE4F80818093BB00909145018A
:1008D00080914401981708F479CF85E88093BC0093
:1008E0000AC085EC8093BC0010929A0104C010925B
:1008F00098010E941D01FF91EF91BF91AF919F91CF
:100900008F917F916F915F914F913F912F910F90B8
:100910000FBE0F901F901895E1ECF1E01382128248
:1009200088EE93E0A0E0B0E084839583A683B7834C
:1009300084E091E091838083EDECF1E013821282F8
:1009400084E191E0918380838CE084838FEF8583C1
:100950008BE0868385E0878384E0808783E08187DE
:1009600082E082871386148615861686178661E0D4
:10097000CF010C947302CF93DF93CDB7DEB7A1976D
:100980000FB6F894DEBF0FBECDBF789484B58260F9
:1009900084BD84B5816084BD85B5826085BD85B523
:1009A000816085BD80916E00816080936E001092A1
:1009B000810080918100826080938100809181001C
:1009C00081608093810080918000816080938000AD
:1009D0008091B10084608093B1008091B00081600B
:1009E0008093B00080917A00846080937A00809137
:1009F0007A00826080937A0080917A00816080938F
:100A00007A0080917A00806880937A001092C10009
:100A100062E08DEC91E00E94730210926F011092DF
:100A20006E0110929C011092BE0110929A0181E019
:100A3000809399011092740161E082E10E94D100DB
:100A400061E083E10E94D1008091B9008E7F8093A4
:100A5000B9008091B9008D7F8093B90088E48093BC
:100A6000B80085E48093BC0086E00E94870087E0A0
:100A70000E948700812C38E0932E46E7242E41E027
:100A8000342E5AE0452E512C612C712C60E0A62E9C
:100A900060E0B62E8FB7F894C0907001D0907101CD
:100AA000E0907201F09073018FBF40E054E000E0ED
:100AB00010E02FB7F8948091700190917101A0918E
:100AC0007201B09173012FBF8C199D09AE09BF0946
:100AD000C297A105B10520F520E420937C00809108
:100AE0007A00806480937A0080917A0086FDFCCF42
:100AF000809178002091790090E0922B9093C00132
:100B00008093BF018115E4E09E0798F60817190746
:100B100028F08417950768F6AC01CBCF8C01C9CFBC
:100B2000041B150B0139F1E01F0730F061E086E08E
:100B30000E94D10060E005C060E086E00E94D10024
:100B400061E087E00E94D100C801880F991F7401FD
:100B5000E81AF90A81E080939B0120E62093BD0109
:100B600010929C011092BE0160E481EC91E00E9421
:100B7000A501B701F7FE02C0615F7F4F84E0759564
:100B800067958A95E1F781EC91E00E94A501C70184
:100B900060E170E00E947606BC0194E0660F771F6A
:100BA0009A95E1F781EC91E00E94A5018091BE0148
:100BB000813208F044C090919A019111FCCF92E0EB
:100BC00090939A0191E0909399019FEF90939801EF
:100BD0001092970180939601ADE9B1E0E6E7F1E06C
:100BE0009E2F9219981718F49D919193F9CF109216
:100BF000750180917501806C8093750180917401FD
:100C0000813061F410927401809175018093BB0072
:100C10008091BC0083FDF8CF85EC01C085EE809308
:100C2000BC0080919A018230E1F3809198018F3F5E
:100C300031F080919801803211F0809198011092EA
:100C40009C011092BE0110929B01E1E08091E001B5
:100C50008111E0E0E195F0E0E353FE4F64896068C4
:100C60008DEC91E00E94700248E050E068E171E094
:100C70008DEC91E00E94A600E1E08091E0018111FD
:100C8000E0E0E195F0E0E353FE4F648960688DECAD
:100C900091E00E947002980140E050E019A2CE015C
:100CA00081967C01CA01B901A30192010E948A06C2
:100CB000605DF70162937F01211531054105510502
:100CC00089F7309761F001900020E9F73197AF0183
:100CD0004E195F09B7018DEC91E00E94A600A114A6
:100CE000B10409F4D7CE0E940000D4CE97FB072EA2
:100CF00016F4009407D077FD09D00E94AC0607FCDB
:100D000005D03EF4909581959F4F0895709561951B
:100D10007F4F0895A1E21A2EAA1BBB1BFD010DC037
:100D2000AA1FBB1FEE1FFF1FA217B307E407F5079B
:100D300020F0A21BB30BE40BF50B661F771F881F77
:100D4000991F1A9469F760957095809590959B010D
:100D5000AC01BD01CF010895AA1BBB1B51E107C027
:100D6000AA1FBB1FA617B70710F0A61BB70B881F3B
:100D7000991F5A95A9F780959095BC01CD010895CA
:100D8000EE0FFF1F0590F491E02D099481E090E0B3
:0A0D9000F8940C94CB06F894FFCF02
:100D9A0000000000A50175016D015E0150014F01BF
:100DAA00000000006A02A600202020202020202027
:020DBA00000037
:107E0000112484B714BE81FFF0D085E080938100F7
:107E100082E08093C00088E18093C10086E0809377
:107E2000C20080E18093C4008EE0C9D0259A86E02C
:107E300020E33CEF91E0309385002093840096BBD3
:107E4000B09BFECF1D9AA8958150A9F7CC24DD24C4
:107E500088248394B5E0AB2EA1E19A2EF3E0BF2EE7
:107E6000A2D0813461F49FD0082FAFD0023811F036
:107E7000013811F484E001C083E08DD089C08234E0
:107E800011F484E103C0853419F485E0A6D080C0E4
:107E9000853579F488D0E82EFF2485D0082F10E0AE
:107EA000102F00270E291F29000F111F8ED06801E7
:107EB0006FC0863521F484E090D080E0DECF843638
:107EC00009F040C070D06FD0082F6DD080E0C81688
:107ED00080E7D80618F4F601B7BEE895C0E0D1E017
:107EE00062D089930C17E1F7F0E0CF16F0E7DF06D8
:107EF00018F0F601B7BEE89568D007B600FCFDCFD4
:107F0000A601A0E0B1E02C9130E011968C91119780
:107F100090E0982F8827822B932B1296FA010C0160
:107F200087BEE89511244E5F5F4FF1E0A038BF0790
:107F300051F7F601A7BEE89507B600FCFDCF97BE46
:107F4000E89526C08437B1F42ED02DD0F82E2BD052
:107F50003CD0F601EF2C8F010F5F1F4F84911BD097
:107F6000EA94F801C1F70894C11CD11CFA94CF0C13
:107F7000D11C0EC0853739F428D08EE10CD085E9AC
:107F80000AD08FE07ACF813511F488E018D01DD067
:107F900080E101D065CF982F8091C00085FFFCCF94
:107FA0009093C60008958091C00087FFFCCF809118
:107FB000C00084FD01C0A8958091C6000895E0E648
:107FC000F0E098E1908380830895EDDF803219F02E
:107FD00088E0F5DFFFCF84E1DECF1F93182FE3DFCA
:107FE0001150E9F7F2DF1F91089580E0E8DFEE27F6
:047FF000FF270994CA
:027FFE00040479
:0400000300007E007B
:00000001FF
